:020000040800F2
:10000000405C002065010008CD070008CB06000811
:10001000C907000873020008F30F00080000000081
:10002000000000000000000000000000AD09000812
:10003000770200080000000055080008990A00082F
:100040007F0100087F0100087F0100087F01000890
:100050007F0100087F0100087F0100087F01000880
:100060007F0100087F0100087F0100087F01000870
:100070007F0100087F0100087F0100087F01000860
:100080007F0100087F0100087F0100087F01000850
:100090007F0100087F0100087F0100087F01000840
:1000A0007F0100087F0100087F0100087F01000830
:1000B0007F0100087F0100087F0100087F01000820
:1000C0007F0100087F0100087F0100087F01000810
:1000D0007F010008D90B0008DD0B00087F01000834
:1000E0007F0100087F0100087F0100087F010008F0
:1000F0007F0100087F0100087F0100087F010008E0
:100100007F0100087F0100087F0100087F010008CF
:100110007F0100087F0100087F0100087F010008BF
:100120007F0100087F0100087F0100087F010008AF
:10013000DFF80CD000F06CF8004800471D130008F1
:10014000405C0020EFF30980704780F30988704716
:10015000EFF30880704780F30888704740BA704713
:10016000C0BA70470648804706480047FEE7FEE7EA
:10017000FEE7FEE7FEE7FEE7FEE7FEE7FEE7FEE757
:100180000D0B000831010008D2B201E000F8012B8C
:10019000491EFBD270470022F6E710B513460A4607
:1001A00004461946FFF7F0FF204610BD2DE9F05F29
:1001B0000546002092469B468846064681464024D6
:1001C0001BE0284641464746224600F042F8534687
:1001D0005A46C01A914110D311461846224600F0E3
:1001E00029F82D1A67EB01084F462246012000210D
:1001F00000F020F817EB00094E41201EA4F1010485
:10020000DFDC484631462A464346BDE8F09F000001
:10021000064C074D06E0E06840F0010394E8070053
:1002200098471034AC42F6D3FFF786FFF01700086A
:1002300010180008202A04DB203A00FA02F10020FE
:1002400070479140C2F1200320FA03F31943904014
:100250007047202A04DB203A21FA02F0002170477F
:1002600021FA02F3D040C2F120029140084319461E
:10027000704700BFFEE7704701B504490098086069
:1002800000BF024800680028FBD108BD34000020F0
:100290000149C860704700000020024030B50446A4
:1002A00004254FF4302000F099F80546042D17D1AD
:1002B0000C48006940F002000A49086108464461A0
:1002C000006940F0400008614FF4302000F086F8EB
:1002D00005460448006941F6FD710840014908617E
:1002E000284630BD0020024004200B49C96801F0B7
:1002F000010109B101200EE00749C96801F00401BC
:1003000009B1022007E00449C96801F0100109B1F0
:10031000032000E0042070470020024003480069E9
:1003200040F0800001490861704700000020024051
:1003300070B504460D460426F00200F04FF806465C
:10034000042E11D10948006940F0010007490861F5
:100350002580F00200F042F806460448006941F6A4
:10036000FE71084001490861304670BD002002401E
:1003700001460888704770B505460C467F2D00DDA4
:1003800070BD4FF0006000EBC526002212E0304641
:1003900000F015F80346A354C3F30721501C215461
:1003A000C3F30741901C2154190ED01C2154361D53
:1003B000101D82B2B2F5006FE9DB00BFE0E7014635
:1003C000086870470248034948600348486070471E
:1003D0002301674500200240AB89EFCD00B50246FE
:1003E0000423FFF781FF034603E0FFF77DFF034689
:1003F000521E012B01D1002AF7D102B9052318465C
:1004000000BD00002DE9F04704460E4617464FF0A8
:100410000008C146B4F1006F02D31A48844205D9DE
:10042000214619A000F0E8FDBDE8F087FFF7CAFFFC
:100430003420FFF72DFF2046FFF730FF00251AE09C
:1004400016F80580681C305C48EA002841462046C2
:10045000FFF76EFF8146B9F1040F03D0494612A0A1
:1004600000F0CAFDA41C0748844202D9FFF756FFDA
:10047000DAE7A81C85B2BD42E2D3FFF74FFF00BF09
:10048000D2E70000FFFF0308446174653E466C61DB
:100490007368207369657A652120416464723A301B
:1004A0007825780A000000007265743A25640A0015
:1004B0002DE9F04705460E4600277F2D02DD504608
:1004C000BDE8F087FFF77EFF4FF0006000EBC52826
:1004D000002415E0315D601C305C41EA002949468A
:1004E0004046FFF725FF0746042F05D0394608A0F0
:1004F00000F082FD3846E3E708F10208A01C84B250
:10050000B4F5006FE6DBFFF709FF3846D8E70000D7
:100510007772697465206572726F207265743A250E
:10052000640000002DE9F04104460E460027B44265
:1005300001DDBDE8F081FFF745FF301BC7B20025A4
:1005400008E061194FF0006202EBC120FFF7A6FE40
:10055000681CC5B2BD42F4DDFFF7E0FE00BFE8E76E
:1005600070B505460E460024FFF72CFF3420FFF738
:100570008FFE2846FFF792FE31462846FFF7D8FE49
:100580000446042C03D0214602A000F035FDFFF7FD
:10059000C5FE70BD577269746520666C6167204541
:1005A0007272207265743A25640A00002DE9F041E8
:1005B000024600250026002000230024002791F891
:1005C00003C00CF00F0591F803C00CF0100CBCF147
:1005D000000F03D091F802C04CEA050591F800C065
:1005E000BCF1000F31D0146800202BE04FF0010C5B
:1005F0000CFA00F3B1F800C00CEA03069E4220D1C9
:1006000083004FF00F0C0CFA03F7BC4305FA03FC10
:100610004CEA040491F803C0BCF1280F06D14FF056
:10062000010C0CFA00FCC2F814C00AE091F803C0F7
:10063000BCF1480F05D14FF0010C0CFA00FCC2F8D8
:1006400010C0401C0828D1D31460B1F800C0BCF120
:10065000FF0F34DD546800202EE000F1080C4FF04D
:10066000010808FA0CF3B1F800C00CEA03069E4238
:1006700021D183004FF00F0C0CFA03F7BC4305FAAD
:1006800003FC4CEA040491F803C0BCF1280F05D127
:1006900000F1080C08FA0CF8C2F8148091F803C0B5
:1006A000BCF1480F07D100F1080C4FF0010808FA1F
:1006B0000CF8C2F81080401C0828CED35460BDE866
:1006C000F081416170470161704700BFFEE70000A3
:1006D00070B500253420FFF7DBFD2B210420FFF748
:1006E00021FF002411E004F12C01C8B20949FFF7F1
:1006F00042FE211DC8B20749FFF7DAFE0546042D68
:1007000001D0284670BD601CC4B2282CEBDB284603
:10071000F8E700003C50002010B504462068094965
:100720000840B0F1005F0CD107A000F065FC72B684
:1007300060680A4908602068FFF70DFD07480068F7
:10074000804710BD0000FE2F4C6F61645F41505028
:1007500020737563657373210A0000002C0000206C
:1007600010B510A000F048FC3420FFF791FD2B21BC
:100770000420FFF7D7FE4FF400610D48FFF70BFD93
:1007800000240CE004F15401C8B20949FFF7F3FD5D
:10079000211DC8B20649FFF78BFE601CC4B2282C8D
:1007A000F0DB10BD5245535420415050210A000047
:1007B0003C50002070B504460D4616463246294688
:1007C0002046FFF71FFE70BD00BFFEE77047000028
:1007D00070B5002100230F22C47804B3154C24689F
:1007E00004F4E064C4F5E064210AC1F10403CA40E2
:1007F000447804FA03F184781440214309010E4C33
:100800000678A155047804F01F050124AC40057852
:100810006D11AD0005F1E025C5F8004109E004784F
:1008200004F01F050124AC40044D0678761145F80C
:10083000264070BD0CED00E000E400E080E100E047
:1008400002490143024A1160704700000000FA05A6
:100850000CED00E07047000029B1064AD26902435E
:10086000044BDA6104E0034AD2698243014BDA6146
:10087000704700000010024029B1064A1269024385
:10088000044B1A6104E0034A12698243014B1A6166
:10089000704700000010024029B1064A92690243E5
:1008A000044B9A6104E0034A92698243014B9A61C6
:1008B000704700000010024029B1064AD268024386
:1008C000044BDA6004E0034AD2688243014BDA60E9
:1008D000704700000010024030B5002100220024C3
:1008E00000232D4D6D6805F00C0121B1042905D0C0
:1008F000082923D105E0294D056022E0274D056038
:100900001FE0254D6D6805F47012234D6D6805F4E8
:100910008034022505EB92421CB9214D55430560F8
:100920000BE01D4D6D6805F400351DB11C4D5543A0
:10093000056002E0194D5543056002E0174D056062
:1009400000BF00BF144D6D6805F0F0010909154D99
:100950006B5C0568DD4045600F4D6D6805F4E06136
:10096000090A104D6B5C4568DD4085600A4D6D6875
:1009700005F46051C90A0B4D6B5C4568DD40C560EC
:10098000054D6D6805F44041890B074D6B5CC568EA
:10099000B5FBF3F5056130BD0010024000127A008E
:1009A00000093D001400002024000020704710B50D
:1009B00000F002F810BD00000CB50020019000907E
:1009C0003348006840F480303149086000BF304847
:1009D000006800F4003000900198401C01900098DD
:1009E00018B90198B0F5A06FF1D12948006800F45A
:1009F000003010B10120009001E00020009000982C
:100A0000012843D12348006840F0100021490860C4
:100A10000846006820F0030008600846006840F0BF
:100A2000020008601A484068194948600846406852
:100A300048600846406840F4806048600846406866
:100A400020F47C1048600846406840F4E810486094
:100A50000846006840F08070086000BF0C480068DD
:100A600000F000700028F9D00948406820F0030029
:100A7000074948600846406840F00200486000BFEF
:100A80000348406800F00C000828F9D10CBD0000B4
:100A9000001002400020024010B500F067F810BDC1
:100AA00030B516480068164AB0FBF2F1B1F1807F0C
:100AB00001D301201DE021F07F40401E4FF0E022D5
:100AC000506150170F22002807DA13071D0E0D4B37
:100AD00000F00F04241F1D5503E013071C0E0A4BE2
:100AE0001C5400BF00204FF0E022906107201061ED
:100AF000002008B100BFFEE730BD0000000000206C
:100B000040420F0018ED00E000E400E010B513488B
:100B1000006840F00100114908600846406810492B
:100B200008400E494860084600680E4908400B49D5
:100B300008600846006820F4802008600846406885
:100B400020F4FE0048604FF41F008860FFF72FFF7D
:100B50004FF000600449086010BD00000010024022
:100B60000000FFF8FFFFF6FE08ED00E00448006813
:100B700020B103480068401E01490860704700002A
:100B80003400002070B505460E46002402211048AE
:100B9000FFF799FD00BF0CE000BF40210D4800F0B9
:100BA00057F90028F9D0295D0A4800F01EFA601CA8
:100BB000C4B2B442F0DB00BF4021064800F048F95F
:100BC0000028F9D002210248FFF77BFD002070BD0C
:100BD00000080140004400407047000010B50024A8
:100BE00040F22551114800F040F958B10F4800F08B
:100BF000F7F90F490F4A128888540E480088401CA4
:100C00000C4908800821094800F022F9012806D182
:100C1000064800F0E5F90821044800F0B5F840F274
:100C20002551024800F0B0F810BD0000004400401B
:100C30003C0000202A00002010B58CB004460121A1
:100C40004804FFF709FE01210520FFF725FE0121D9
:100C50004804FFF711FE00214FF40030FFF70CFEAF
:100C60004FF48060FFF7ECFD03208DF82E0002208A
:100C7000ADF82C0010208DF82F000BA93F48FFF78E
:100C800095FC0420ADF82C0018208DF82F000BA93E
:100C90003A48FFF78BFC0820ADF82C0004208DF8B3
:100CA0002F000BA93548FFF781FC07940020ADF811
:100CB0002000ADF82200ADF82400ADF828000C208B
:100CC000ADF8260007A92E4800F01EF926208DF861
:100CD000180003208DF819008DF81A0001208DF8F6
:100CE0001B0006A8FFF774FD012240F2255124489D
:100CF00000F0E5F80121224800F04FF8402120489B
:100D000000F042F802211D48FFF7DBFC012144F20C
:100D10000400FFF7C1FD1B4800F04CF84FF40070D1
:100D2000ADF8140003208DF8160018208DF8170078
:100D300005A91248FFF73AFC4FF48060ADF81400A3
:100D400004208DF8170005A90C48FFF72FFC01942B
:100D50000020ADF80800ADF80A00ADF80C00ADF8C1
:100D600010000C20ADF80E0007A9064800F0CCF8E2
:100D70000121044800F011F80CB010BD000801403A
:100D8000004400400038014001F40072B2F5007FD9
:100D900000D100BFCA430280704721B1828942F46A
:100DA0000052828104E082894DF6FF731A408281ED
:100DB0007047000010B504462048844209D1012143
:100DC0008803FFF779FD00214FF48040FFF774FDA1
:100DD00032E01B48844209D101214804FFF74CFD51
:100DE00000214FF40030FFF747FD25E0154884420D
:100DF00009D101218804FFF73FFD00214FF4802035
:100E0000FFF73AFD18E01048844209D10121C804D7
:100E1000FFF732FD00214FF40020FFF72DFD0BE01E
:100E20000A48844208D101210805FFF725FD002169
:100E30004FF48010FFF720FD10BD00000038014086
:100E40000044004000480040004C0040005000407A
:100E500002460020B1F5007F00D100BF13880B408F
:100E60000BB1012000E00020704770B5024600245D
:100E700000230025002040F66A16B14200D100BFD1
:100E8000C1F3421501F01F03012606FA03F3012DF9
:100E900002D19689334006E0022D02D1168A3340F2
:100EA00001E0968A33400C12012606FA04F41688F3
:100EB000344013B10CB1012000E0002070BDF0B54A
:100EC0000346002400260025002040F66A17B94298
:100ED00000D100BF1846C1F3421401F01F060127DC
:100EE00007FA06F5012C01D10C3004E0022C01D1E7
:100EF000103000E014301AB107682F43076002E099
:100F00000768AF430760F0BD2DE9F04786B005469E
:100F10000E460024A24600BFA1460027B08900B1BA
:100F200000BF2F462C8A4CF6FF700440F088044323
:100F30002C82AC894EF6F3100440B0883189084306
:100F4000718908430443AC81AC8A4FF6FF400440EA
:100F5000B0890443AC8201A8FFF7BEFC1F4887425A
:100F600002D1DDF810A001E0DDF80CA0A88900F4A2
:100F7000004040B10AEBCA0000EB0A10316849009A
:100F8000B0FBF1F807E00AEBCA0000EB0A10316889
:100F90008900B0FBF1F86420B8FBF0F004012009EF
:100FA000642101FB1089A88900F4004040B132207F
:100FB00000EBC900B0FBF1F000F00700044308E0CB
:100FC000322000EB09106421B0FBF1F000F00F00BB
:100FD00004432C8106B0BDE8F087000000380140D2
:100FE00001468888C0F308007047C1F30802828078
:100FF000704700BFFEE700000FB4054B10B503A912
:10100000044A029800F018F810BC5DF814FB0000C8
:10101000F91200083800002002E008C8121F08C1B9
:10102000002AFAD170477047002001E001C1121F69
:10103000002AFBD1704700002DE9FF4F8DB09B4681
:101040000F460446002606E025280BD05A460F9985
:101050009047641C761C20780028F5D111B03046EA
:10106000BDE8F08F0025A8460122984900E005431D
:1010700014F8013F203B02FA03F00842F7D1207830
:101080002E2817D114F8010F45F004052A280ED098
:101090006FF02F022078A0F1300109290AD808EB5F
:1010A000880102EB410100EB0108641CF2E757F8EC
:1010B000048B641C20786C280DD004DC4C2812D0E2
:1010C0006A2811D104E074280DD07A280CD10AE0E6
:1010D00045F4001507E0617845F48015814202D19E
:1010E000641C05F58015641C2278692A45D008DC4B
:1010F000002AB3D0582A69D0632A10D0642A08D1B4
:101100003BE0702A67D0732A13D0752A5CD0782A06
:101110005CD010465A460F999047761CD3E017F8DA
:10112000040B8DF8000000208DF80100E946012035
:1011300003E057F8049B4FF0FF3069074FF00005BC
:1011400001D40AE06D1C45450DDA8542FADB19F839
:1011500005100029F6D106E06D1C8542FCDB19F86C
:1011600005100029F8D12E4404E019F8010B5A4665
:101170000F9990476D1EF8D2A5E00A200021CDE915
:101180000801C5F3025002280DD001CFC117031E7C
:1011900071F100030DDA4FF0000CD0EB0C006CEB9A
:1011A00001012D2308E0FF1D27F00707F7E80201E2
:1011B000EDE72B0504D52B238DF8283001233BE0E8
:1011C000EB0739D02023F7E70A2000E010200021A8
:1011D000CDE9080107E01020002145F00405CDE924
:1011E00008014FF00808C5F3025002280FD001CFC4
:1011F00000214FF0000A2B071FD5702A0DD0DDE922
:1012000008C38CF0100C5CEA030C0CD015E0FF1D39
:1012100027F00707F7E80201EBE740228DF82820C6
:101220004FF0010A0BE050EA010306D030238DF89D
:1012300028308DF8292002239A46582A04D024A267
:101240000DF120090B9209E026A2F9E7DDE9082358
:10125000FEF7ACFF0B9B9B5C09F8013D50EA0102D5
:10126000F4D1ADEB090020300890680701D44FF0AD
:1012700001080899884502DDA8EB010000E0002084
:101280008046002506E00AA85A46405D0F9990471F
:101290006D1C761C5545F6DB04E030205A460F994C
:1012A0009047761CB8F10001A8F10108F5DC05E0D3
:1012B00019F8010B5A460F999047761C0899481E59
:1012C00008900029F4DC641CC5E600000928010030
:1012D00030313233343536373839616263646566AC
:1012E000000000003031323334353637383941426E
:1012F000434445460000000070B504460D46E1B287
:101300000548FFF772FE00BF40210348FFF7A0FD2C
:101310000028F9D0204670BD00380140F0B587B0F4
:1013200000240025002006900227D34EFFF7B8FBCB
:10133000FFF7ECFB4FF41650FFF77EFCCFA0FFF752
:101340005BFED048FFF714F801281CD0CE48FFF709
:10135000E3F9CD48406800F07F40B0F1006F0CD158
:10136000CAA0FFF749FE46200690012106A8FFF714
:1013700009FCC548FFF7D0F97AE1FFF7F1F9C24857
:10138000FFF7CAF974E13946BE48FFF7E9F83C2493
:1013900069E0C5480188C5A0FFF72EFEC248008855
:1013A00060B1002506E0C548415DC5A0FFF724FEF9
:1013B000681CC5B2BC4800888542F4DBBA48008886
:1013C0000B2803D0B84800880A2827D1BB48827A66
:1013D0000178BCA0FFF710FEB84800783A281DD16C
:1013E000B648807A212819D14FF4A041B348FEF7BE
:1013F000D2FE0020AC49088044F62060FEF73CFF96
:1014000054200690012106A8FFF7BCFBB2A0FFF70D
:10141000F3FD42F21070FEF72FFF26E0012C12D1EF
:101420009948406800F07F40B0F1006F0BD1AFA049
:10143000FFF7E2FD46200690012106A8FFF7A2FB78
:101440009148FFF769F94FF4A0419C48FEF7A3FECD
:10145000002095490880AC48FEF70EFFABA0FFF7CF
:10146000CBFD601EC4B2002C93DC00BFAAA0FFF726
:10147000C3FD8D480188AAA0FFF7BEFD8F48C07943
:101480008E4989798D4A52798C4B1B79CDE901328D
:10149000CDE903108948C078009088488378427865
:1014A0000178A4A0FFF7A8FD84480078462831D130
:1014B0008248407876282DD180488078502829D1DC
:1014C0007E48C078742825D17C4800797A2821D1BB
:1014D0007A48407956281DD178488079302819D12A
:1014E0007648C079312815D14FF4A0417348FEF7F2
:1014F00052FE00206C49088054200690012106A865
:10150000FFF740FB90A0FFF777FD42F21070FEF767
:10151000B3FE0BE046200690012106A8FFF732FB40
:101520008EA0FFF769FD5848FFF7F6F890A0FFF787
:1015300063FD6248C07861498978CDE900105F4851
:1015400043780278584801888BA0FFF755FD0020AA
:101550008F4908805948C078D0B15848C078088071
:101560004FF4A0415548FEF716FE00204E49088072
:1015700041200690012106A8FFF704FB42F21070FB
:10158000FEF77AFE8248018882A0FFF735FD0BE066
:1015900046200690012106A8FFF7F4FA80A0FFF785
:1015A0002BFD3948FFF7B8F881A0FFF725FD00248F
:1015B00031E04FF4A0414148FEF7EDFD00203A49EB
:1015C000088041200690012106A8FFF7DBFA7B483E
:1015D000FEF752FE3448018879A0FFF70DFD32482E
:1015E000028836493046FFF7E5F82F480088064460
:1015F0004FF4A0413148FEF7CEFD00202A49088073
:1016000041200690012106A8FFF7BCFA6F48FEF7BB
:1016100033FE601CC4B25E4800888442C9DBFFF719
:1016200057F8194841686AA0FFF7E6FC1648406879
:1016300000F07F40B0F1006F0CD167A0FFF7DCFC39
:1016400041200690012106A8FFF79CFA0E48FFF7FB
:1016500063F80DE063A0FFF7CFFC46200690012160
:1016600006A8FFF78FFAFFF77BF80748FFF754F853
:10167000002007B0F0BD0000006001084F6E650A51
:101680000000000000E00308002000084E4F207515
:101690007064617465202D2D2D52756E204170701F
:1016A0002E2E2E0A000000002A00002072656376AC
:1016B000206C656E3A25640A000000003C000020A2
:1016C0002578000048616E647368616B653A256334
:1016D0002025630A0000000048616E647368616B36
:1016E0006520537563636564210A00004578697459
:1016F00020757064617465202D2D2D52756E20410A
:1017000070702E2E2E0A000040420F00576169743F
:1017100020446174650A000054776F0A00000000DD
:101720005553415254325F52585F434E543A2564E8
:101730000A000000257825782578257825782578F1
:10174000257825780000000044617465204D61749F
:10175000636820537563636564210A00446174659E
:10176000204D61746368204661696C210A000000A5
:1017700054687265650A000072783A2564206461D5
:1017800074653A25642025642025642025640A00B8
:1017900028000020506167654E554D3A25640A00C7
:1017A00050616765206973204E554C4C210A00003A
:1017B0006261636B204150500A000000404B4C00B6
:1017C00073697A653A25640A00000000A08601006A
:1017D000307825780000000052756E204170702E20
:1017E0002E2E0A004E6F20415050210A00000000AA
:1017F00010180008000000203C000000181000082D
:101800004C1800083C000020045C00002810000870
:1018100000A24A04000000000000000001020304CE
:101820000607080900000000010203040102030486
:101830000607080902040608000000000000000076
:0C1840000100000000000000000000009B
:0400000508000131BD
:00000001FF
